:020000040800F2
:1000000000000320C12401084D1601084F16010805
:10001000511601085316010855160108000000008A
:10002000000000000000000000000000571601085A
:1000300059160108000000005B1601085D16010852
:10004000112501081125010811250108651601086F
:10005000751601087D1601081125010811250108F2
:100060001125010811250108112501081125010894
:100070001125010811250108112501081125010884
:100080001125010811250108811601081125010813
:100090001125010811250108112501081125010864
:1000A0001125010811250108112501081125010854
:1000B00011250108112501081125010891160108D3
:1000C000A11601081125010811250108B116010822
:1000D000112501081125010811250108C116010883
:1000E00011250108851701081125010811250108AE
:1000F0001125010811250108112501081125010804
:1001000011250108112501081125010811250108F3
:10011000951701081125010811250108AD170108DF
:1001200011250108112501081125010811250108D3
:10013000BD17010811250108112501081125010825
:1001400011250108112501081125010811250108B3
:1001500011250108112501081125010811250108A3
:100160001125010811250108112501081125010893
:100170001125010811250108112501081125010883
:100180001125010811250108112501081125010873
:100190001125010811250108112501081125010863
:0C01A00000000000000000001125010814
:1001B00010B5054C237833B9044B13B10448AFF3A1
:1001C00000800123237010BD6C330020000000006C
:1001D000C89D010808B5034B1BB103490348AFF3A1
:1001E000008008BD0000000070330020C89D010899
:1001F00010F8012B11F8013B012A28BF9A42F7D0D1
:10020000D01A7047034613F8012B002AFBD1181AA5
:1002100001387047000000000000000000000000EE
:1002200001F0FF01102A2BDB10F0070F08D010F8A7
:10023000013B013A8B422DD010F0070F42B3F6D1AB
:10024000F0B441EA012141EA014122F007047FF0C4
:1002500000070023F0E80256083C85EA010586EA1B
:10026000010685FA47F5A3FA87F586FA47F6A5FA57
:1002700087F68EB9EED1F0BC01F0FF0102F0070263
:1002800032B110F8013B013A83EA010313B1F8D10E
:100290000020704701387047002D06BF35460338EF
:1002A000073815F0010F07D1013015F4807F02BF28
:1002B000013015F4C03F0130F0BC0138704700BF79
:1002C00081F0004102E000BF83F0004330B54FEA07
:1002D00041044FEA430594EA050F08BF90EA020F74
:1002E0001FBF54EA000C55EA020C7FEA645C7FEA07
:1002F000655C00F0E2804FEA5454D4EB5555B8BF2A
:100300006D420CDD2C4480EA020281EA030382EA9A
:10031000000083EA010180EA020281EA0303362D2C
:1003200088BF30BD11F0004F4FEA01314FF4801CFF
:100330004CEA113102D0404261EB410113F0004F11
:100340004FEA03334CEA133302D0524263EB4303C8
:1003500094EA050F00F0A780A4F10104D5F1200E66
:100360000DDB02FA0EFC22FA05F2801841F10001C1
:1003700003FA0EF2801843FA05F359410EE0A5F195
:1003800020050EF1200E012A03FA0EFC28BF4CF0C6
:10039000020C43FA05F3C01851EBE37101F000457C
:1003A00007D54FF0000EDCF1000C7EEB00006EEB89
:1003B0000101B1F5801F1BD3B1F5001F0CD3490813
:1003C0005FEA30004FEA3C0C04F101044FEA44526A
:1003D00012F5800F80F09A80BCF1004F08BF5FEAF1
:1003E000500C50F1000041EB045141EA050130BDD1
:1003F0005FEA4C0C404141EB0101013C28BFB1F5E3
:10040000801FE9D291F0000F04BF01460020B1FA2D
:1004100081F308BF2033A3F10B03B3F120020CDA00
:100420000C3208DD02F1140CC2F10C0201FA0CF0DE
:1004300021FA02F10CE002F11402D8BFC2F1200C43
:1004400001FA02F120FA0CFCDCBF41EA0C019040F9
:10045000E41AA2BF01EB0451294330BD6FEA040442
:100460001F3C1CDA0C340EDC04F11404C4F120022D
:1004700020FA04F001FA02F340EA030021FA04F33F
:1004800045EA030130BDC4F10C04C4F1200220FA96
:1004900002F001FA04F340EA0300294630BD21FAD4
:1004A00004F0294630BD94F0000F83F4801306BF9A
:1004B00081F480110134013D4EE77FEA645C18BF8E
:1004C0007FEA655C29D094EA050F08BF90EA020F25
:1004D00005D054EA000C04BF1946104630BD91EA1D
:1004E000030F1EBF0021002030BD5FEA545C05D120
:1004F0004000494128BF41F0004130BD14F580045F
:100500003CBF01F5801130BD01F0004545F0FE41D2
:1005100041F470014FF0000030BD7FEA645C1ABF07
:10052000194610467FEA655C1CBF0B46024650EA3E
:10053000013406BF52EA033591EA030F41F400216A
:1005400030BD00BF90F0000F04BF0021704730B5F0
:100550004FF4806404F132044FF000054FF00001C5
:1005600050E700BF90F0000F04BF0021704730B586
:100570004FF4806404F1320410F0004548BF40425B
:100580004FF000013EE700BF42004FEAE2014FEAB0
:1005900031014FEA02701FBF12F07F4393F07F4F8B
:1005A00081F06051704732F07F4208BF704793F08E
:1005B0007F4F04BF41F40021704730B54FF46074A1
:1005C00001F0004521F000411CE700BF50EA0102A4
:1005D00008BF704730B54FF000050AE050EA01024D
:1005E00008BF704730B511F0004502D5404261EBBD
:1005F00041014FF4806404F132045FEA915C3FF4FE
:10060000D8AE4FF003025FEADC0C18BF03325FEA9A
:10061000DC0C18BF033202EBDC02C2F1200300FA4B
:1006200003FC20FA02F001FA03FE40EA0E0021FA70
:1006300002F11444BDE600BF70B54FF0FF0C4CF45E
:10064000E06C1CEA11541DBF1CEA135594EA0C0F10
:1006500095EA0C0F00F0DEF82C4481EA030621EA4B
:100660004C5123EA4C5350EA013518BF52EA033586
:1006700041F4801143F4801338D0A0FB02CE4FF038
:100680000005E1FB02E506F00042E0FB03E54FF068
:100690000006E1FB03569CF0000F18BF4EF0010E60
:1006A000A4F1FF04B6F5007F64F5407404D25FEA5C
:1006B0004E0E6D4146EB060642EAC62141EA55510F
:1006C0004FEAC52040EA5E504FEACE2EB4F1FD0C51
:1006D00088BFBCF5E06F1ED8BEF1004F08BF5FEACF
:1006E000500E50F1000041EB045170BD06F0004681
:1006F00046EA010140EA020081EA0301B4EB5C042E
:10070000C2BFD4EB0C0541EA045170BD41F4801125
:100710004FF0000E013C00F3AB8014F1360FDEBF4A
:10072000002001F0004170BDC4F10004203C35DA26
:100730000C341BDC04F11404C4F1200500FA05F3A9
:1007400020FA04F001FA05F240EA020001F000424A
:1007500021F0004110EBD37021FA04F642EB0601C0
:100760005EEA430E08BF20EAD37070BDC4F10C04EA
:10077000C4F1200500FA04F320FA05F001FA04F2AE
:1007800040EA020001F0004110EBD37041F100019A
:100790005EEA430E08BF20EAD37070BDC4F12005A5
:1007A00000FA05F24EEA020E20FA04F301FA05F20D
:1007B00043EA020321FA04F001F0004121FA04F2B5
:1007C00020EA020000EBD3705EEA430E08BF20EA85
:1007D000D37070BD94F0000F0FD101F000464000BF
:1007E00041EB010111F4801F08BF013CF7D041EA41
:1007F000060195F0000F18BF704703F00046520045
:1008000043EB030313F4801F08BF013DF7D043EA15
:100810000603704794EA0C0F0CEA135518BF95EACB
:100820000C0F0CD050EA410618BF52EA4306D1D152
:1008300081EA030101F000414FF0000070BD50EA71
:10084000410606BF1046194652EA430619D094EAFB
:100850000C0F02D150EA013613D195EA0C0F05D1E5
:1008600052EA03361CBF104619460AD181EA030139
:1008700001F0004141F0FE4141F470014FF00000F1
:1008800070BD41F0FE4141F4780170BD70B54FF08C
:10089000FF0C4CF4E06C1CEA11541DBF1CEA13550C
:1008A00094EA0C0F95EA0C0F00F0A7F8A4EB0504EE
:1008B00081EA030E52EA03354FEA013100F08880E5
:1008C0004FEA03334FF0805545EA131343EA1263AE
:1008D0004FEA022245EA111545EA10654FEA002663
:1008E0000EF000419D4208BF964244F1FD0404F51C
:1008F000407402D25B084FEA3202B61A65EB030578
:100900005B084FEA32024FF480104FF4002CB6EB34
:10091000020E75EB030E22BFB61A754640EA0C00B4
:100920005B084FEA3202B6EB020E75EB030E22BFF4
:10093000B61A754640EA5C005B084FEA3202B6EB35
:10094000020E75EB030E22BFB61A754640EA9C00F4
:100950005B084FEA3202B6EB020E75EB030E22BFC4
:10096000B61A754640EADC0055EA060E18D04FEA82
:10097000051545EA16754FEA06164FEAC30343EA22
:1009800052734FEAC2025FEA1C1CC0D111F4801FEF
:100990000BD141EA00014FF000004FF0004CB6E7E8
:1009A00011F4801F04BF01430020B4F1FD0C88BF87
:1009B000BCF5E06F3FF6AFAEB5EB030C04BFB6EB92
:1009C000020C5FEA500C50F1000041EB045170BD85
:1009D0000EF0004E4EEA113114EB5C04C2BFD4EBB2
:1009E0000C0541EA045170BD41F480114FF0000E36
:1009F000013C90E645EA060E8DE60CEA135594EAB2
:100A00000C0F08BF95EA0C0F3FF43BAF94EA0C0FB4
:100A10000AD150EA01347FF434AF95EA0C0F7FF429
:100A200025AF104619462CE795EA0C0F06D152EA7D
:100A300003353FF4FDAE1046194622E750EA410661
:100A400018BF52EA43067FF4C5AE50EA41047FF472
:100A50000DAF52EA43057FF4EBAE12E74FF0FF3CD7
:100A600006E000BF4FF0010C02E000BF4FF0010CA8
:100A70004DF804CD4FEA410C7FEA6C5C4FEA430C21
:100A800018BF7FEA6C5C1BD001B050EA410C0CBF70
:100A900052EA430C91EA030F02BF90EA020F0020D2
:100AA000704710F1000F91EA030F58BF994208BF39
:100AB00090422CBFD8176FEAE37040F001007047F6
:100AC0004FEA410C7FEA6C5C02D150EA013C07D14D
:100AD0004FEA430C7FEA6C5CD6D152EA033CD3D098
:100AE0005DF8040B704700BF8446104662468C4692
:100AF0001946634600E000BF01B5FFF7B7FF0028C5
:100B000048BF10F1000F01BD4DF808EDFFF7F4FFED
:100B10000CBF012000205DF808FB00BF4DF808ED78
:100B2000FFF7EAFF34BF012000205DF808FB00BF9B
:100B30004DF808EDFFF7E0FF94BF012000205DF8BD
:100B400008FB00BF4DF808EDFFF7CEFF94BF012072
:100B500000205DF808FB00BF4DF808EDFFF7C4FF6B
:100B600034BF012000205DF808FB00BF4FEA410CB4
:100B70007FEA6C5C02D150EA013C0AD14FEA430C97
:100B80007FEA6C5C02D152EA033C02D14FF00000D4
:100B900070474FF0010070474FEA410212F5001212
:100BA00015D211D56FF47873B3EB625212D94FEAB4
:100BB000C12343F0004343EA505311F0004F23FA9E
:100BC00002F018BF404270474FF00000704750EAF3
:100BD000013005D111F0004008BF6FF000407047B0
:100BE0004FF00000704700BF4A0011D212F500120A
:100BF00011D20DD56FF47873B3EB62520ED44FEA75
:100C0000C12343F0004343EA505323FA02F07047F4
:100C10004FF00000704750EA013002D14FF0FF3032
:100C200070474FF0000070474FEA4102B2F1E043D5
:100C300024BFB3F5001CDCF1FE5C0DD901F0004CC3
:100C40004FEAC0024CEA5070B2F1004F40EB830013
:100C500008BF20F00100704711F0804F21D113F13F
:100C60003872BCBF01F00040704741F480114FEA78
:100C70005252C2F11802C2F1200C10FA0CF320FA01
:100C800002F018BF40F001004FEAC1234FEAD3231E
:100C900003FA0CFC40EA0C0023FA02F34FEA430388
:100CA000CCE77FEA625307D150EA01331EBF4FF011
:100CB000FE4040F44000704701F0004040F0FE402C
:100CC00040F40000704700BF53B94AB9002908BF7B
:100CD00000281CBF4FF0FF314FF0FF3000F0A4B9E7
:100CE000ADF1080C6DE904CE00F03CF8DDF804E04D
:100CF000DDE9022304B0704738B500220023044622
:100D00000D46FFF70BFF28B920462946BDE83840BD
:100D100000F00AB8204605F1004100F005F8404215
:100D200061EB410138BD00BFD0B50C4B0022064637
:100D30000F46FFF781FCFFF757FF0446FFF702FC61
:100D4000074B0022FFF778FC02460B463046394637
:100D5000FFF7BAFAFFF748FF2146D0BD0000F03D8B
:100D60000000F0412DE9F047089D04468C46002B19
:100D700040F083808A42174647D9B2FA82F242B1E4
:100D8000C2F1200024FA00F09140974040EA010CA3
:100D900094404FEA1748230CBCFBF8F61FFA87FE75
:100DA00008FB16C143EA014306FB0EF1994209D93B
:100DB000FB1806F1FF3080F01981994240F216814C
:100DC000023E3B445B1AA4B2B3FBF8F008FB1033BD
:100DD00044EA034400FB0EFEA64509D93C1900F184
:100DE000FF3380F00581A64540F2028102383C4481
:100DF00040EA0640A4EB0E0400261DB1D4400023B7
:100E0000C5E900433146BDE8F08702B9FFDEB2FA1A
:100E100082F2002A50D1CB1B4FEA174E1FFA87F8F7
:100E20000126B3FBFEFC210C0EFB1C3341EA0341FF
:100E300008FB0CF38B4207D979180CF1FF3002D272
:100E40008B4200F2E9808446C91AA3B2B1FBFEF0DE
:100E50000EFB101143EA014408FB00F8A04507D936
:100E60003C1900F1FF3302D2A04500F2D9801846A8
:100E7000A4EB080440EA0C40BFE78B4209D9002DDF
:100E800000F0B1800026C5E9000130463146BDE8DA
:100E9000F087B3FA83F6002E4AD18B4202D3824206
:100EA00000F2B880841A61EB030101208C46002D0A
:100EB000A8D0C5E9004CA5E7C2F1200320FA03F64B
:100EC000974001FA02F04FEA174ED9403043030C25
:100ED000B1FBFEF61FFA87F80EFB161143EA014339
:100EE00006FB08F1994204FA02F409D9FB1806F14D
:100EF000FF3C80F08D80994240F28A80023E3B4464
:100F00005B1A81B2B3FBFEF00EFB103341EA0341E2
:100F100000FB08F38B4207D9791800F1FF3C73D22C
:100F20008B4271D902383944CB1A40EA064678E739
:100F3000C6F1200C03FA06F422FA0CF31C4320FA43
:100F40000CF701FA06F34FEA144E21FA0CF11F4395
:100F50003B0CB1FBFEF91FFA84F80EFB191143EAB2
:100F6000014109FB08FA8A4502FA06F200FA06F383
:100F700008D9611809F1FF3048D28A4546D9A9F14C
:100F800002092144A1EB0A01BFB2B1FBFEF00EFB46
:100F9000101147EA014700FB08F8B84507D9E719DF
:100FA00000F1FF312ED2B8452CD90238274440EA4F
:100FB0000940A7EB0807A0FB02894F45C6464946F2
:100FC0001AD317D05DB1B3EB0E0267EB010707FA36
:100FD0000CFCF2404CEA0202F740C5E9002700266B
:100FE0003146BDE8F0872E4628460BE70646E9E67F
:100FF0001846FDE64345E5D2B8EB020E69EB040165
:101000000138DFE70846D2E760468DE78146B9E759
:10101000664675E730464AE7ACF1020C394413E7FF
:1010200002383C4424E700BF704700BF10B50446B7
:101030000E4B18784FF47A73B3FBF0F30C4A106838
:10104000B0FBF3F000F0E4FC68B90F2C01D90120EB
:101050000AE0002221464FF0FF3000F097FC034BDE
:101060005C60002000E0012010BD00BF00000020F7
:101070005429002008B50B4B1A6842F400721A601C
:101080001A6842F480621A601A6842F480721A6028
:10109000032000F069FC0020FFF7C8FF10F0A2FA5F
:1010A000002008BD003C0240034A1168034B1B7836
:1010B0000B441360704700BFB444002000000020C0
:1010C000014B1868704700BFB444002038B504468F
:1010D000FFF7F6FF0546B4F1FF3F02D0044B1B7843
:1010E0001C44FFF7EDFF401BA042FAD338BD00BF00
:1010F000000000204A4B5A6822F440325A605A6875
:1011000041680A435A600268536823F4807353604D
:1011100002685368016943EA012353600268536817
:1011200023F0407353600268536881680B43536037
:101130000268936823F40063936002689368C1684F
:101140000B439360826A374B9A4257D00268936888
:1011500023F07063936002689368816A0B43936025
:101160000268936823F04053936002689368C16AF1
:101170000B4393600268936823F002039360026854
:101180009368017E43EA4103936090F82030002B7E
:101190003FD00268536843F40063536002685368A9
:1011A00023F46043536001684B68426A013A43EAA2
:1011B00042334B600268D36A23F47003D362016840
:1011C000CB6AC269013A43EA0253CB620268936870
:1011D00023F4007393600268936890F8301043EA38
:1011E000412393600268936823F4806393600268EC
:1011F0009368416943EA812393607047026893686A
:1012000023F0706393600268936823F04053936007
:10121000B0E70268536823F400635360CAE700BF75
:10122000002301400100000F38B310B50446036CE1
:1012300043B1236C13F0100F0BD00120002384F86E
:101240003C3010BD0BF08AFA0023636484F83C3014
:10125000EFE7236C23F4885323F0020343F00203E7
:1012600023642046FFF746FF00206064236C23F0D0
:10127000030343F001032364E0E70120704700000B
:1012800082B00023019390F83C30012B00F0908055
:10129000012380F83C3003689A6812F0010F13D1E3
:1012A0009A6842F001029A60444B1B68444AA2FBD0
:1012B00003239B0C03EB4303019302E0019B013BDF
:1012C0000193019B002BF9D10268936813F0010F81
:1012D00063D0036C23F4E06323F0010343F48073D1
:1012E0000364536813F4806F05D0036C23F44053F8
:1012F00043F480530364036C13F4805F22D0436C87
:1013000023F006034364002380F83C306FF022038F
:1013100013600268536843F0806343F02003536016
:10132000284B5B6813F01F0F27D10368264A9342AE
:1013300011D002F58072934207D0244A934214D010
:10134000002033E000234364DDE702F500725268B9
:1013500012F01F0FF1D19A6812F0405F2AD19A68FB
:1013600042F080429A60002020E002F580725268CC
:1013700012F0100FEFD0002018E00368124A9342D9
:1013800001D0002012E09A6812F0405F14D19A68F0
:1013900042F080429A60002008E0036C43F01003A2
:1013A0000364436C43F001034364002002B07047C0
:1013B0000220FBE70020F9E70020F7E7542900208E
:1013C00083DE1B4300230140002001400022014036
:1013D00010B582B013460022019290F83C20012AF9
:1013E00000F0AE800446012280F83C20026890683C
:1013F00010F0010F13D1906840F001009060534A43
:101400001068534AA2FB0020800C00EB40000190C2
:1014100002E001980138019001980028F9D1226872
:10142000906810F4807F03D0906820F48070906002
:101430002268906810F0010F77D0206C20F4E060F3
:1014400020F0010040F480702064526812F4806F34
:1014500005D0226C22F4405242F480522264226C65
:1014600012F4805F36D0626C22F0060262640022C1
:1014700084F83C20A26B3748D063A26B36481064D6
:10148000A26B3648D06422686FF02200106020689A
:10149000426842F0806242602068826842F4807252
:1014A000826020680A4600F14C01A06B00F0ACFBA2
:1014B0002B4B5B6813F01F0F27D12368294A9342F7
:1014C00011D002F58072934207D0274A934214D07C
:1014D000002033E000226264C9E702F5007252681E
:1014E00012F01F0FF1D19A6812F0405F2AD19A686A
:1014F00042F080429A60002020E002F5807252683B
:1015000012F0100FEFD0002018E02368154A934224
:1015100001D0002012E09A6812F0405F14D19A685E
:1015200042F080429A60002008E0236C43F01003F0
:101530002364636C43F001036364002002B010BDB8
:101540000220FBE70020F9E70020F7E754290020FC
:1015500083DE1B434D170008E71500083717000806
:1015600000230140002001400022014090F83C305F
:10157000012B35D010B50446012380F83C300268B9
:10158000936823F00103936003689A6812F0010FD7
:1015900024D19A6822F480729A60806B90F835307A
:1015A000DBB2022B11D000202268536823F0806345
:1015B0005360236C23F4885323F0010343F00103A9
:1015C0002364002384F83C3010BD00F052FB002857
:1015D000EAD0236C43F040032364E5E70020F0E702
:1015E00002207047704708B5806BFFF7FBFF08BD0E
:1015F0007047704770B5044603681E685D6816F052
:10160000020F2FD005F0200262B3026C12F0100F0F
:1016100003D1026C42F4007202649A6812F0405FD7
:1016200019D1227EBAB9DA6A12F4700F03D09A681F
:1016300012F4806F0FD15A6822F020025A60236C96
:1016400023F480732364236C13F4805F03D1236C31
:1016500043F001032364204610F05CFB23686FF025
:1016600012021A6005F0800316F0040F37D0002B29
:1016700035D0236C13F0100F03D1236C43F40053C7
:10168000236423689A6812F4401F21D19A6B12F4E4
:10169000401F03D09A6812F4806F19D15A6812F46F
:1016A000806F15D19A6812F0405F11D1227E7AB90D
:1016B0005A6822F080025A60236C23F4805323641A
:1016C000236C13F4807F03D1236C43F00103236464
:1016D000204600F047F923686FF00C021A6005F00D
:1016E000400316F0010F05D023B123681B6813F0E7
:1016F000010F06D105F0806516F0200F00D065B906
:1017000070BD236C43F4803323642046FFF770FFE1
:1017100023686FF001021A60ECE7636C43F0020388
:10172000636423686FF020051D602046FFF761FFAA
:1017300023681D60E4E708B5806B40230364436CB5
:1017400043F004034364FFF754FF08BD08B50346A4
:10175000806B026C12F0500F25D1036C43F40073C0
:10176000036403689A6812F0405F19D1027EBAB927
:10177000DA6A12F4700F03D09A6812F4806F0FD1F6
:101780005A6822F020025A60036C23F480730364C9
:10179000036C13F4805F03D1036C43F00103036413
:1017A00010F0B8FA08BD026C12F0100F04D1826B71
:1017B000D26C18469047F5E7FFF71BFFF2E70000F1
:1017C00030B482B00023019390F83C30012B00F03C
:1017D000BD80012380F83C300B68092B3ED9056899
:1017E000EA689BB203EB43031E3B072404FA03F3AE
:1017F00022EA0303EB600568EA688C680B8803EB58
:1018000043031E3B04FA03F31343EB604B68062BC0
:101810003AD805686A6B03EB8303053B1F2404FA7F
:1018200003F322EA03036B6305686A6B4B6803EBFF
:101830008303053B0C8804FA03F313436B630268CC
:10184000434B9A4250D00268414B9A4259D00023F0
:1018500080F83C30184602B030BC704705682A69F1
:101860009BB203EB4303072404FA03F322EA0303C6
:101870002B6105682A698C680B8803EB430304FA23
:1018800003F313432B61C1E70C2B16D805682A6BB1
:1018900003EB8303233B1F2404FA03F322EA03032D
:1018A0002B6305682A6B4B6803EB8303233B0C888F
:1018B00004FA03F313432B63C1E70568EA6A03EBF9
:1018C0008303413B1F2404FA03F322EA0303EB6280
:1018D0000568EA6A4B6803EB8303413B0C8804FA12
:1018E00003F31343EB62AAE70B68122BABD1194B3E
:1018F0005A6822F400025A605A6842F480025A6020
:10190000A1E70B68144A934201D0112B9FD1114BD0
:101910005A6822F480025A605A6842F400025A60FF
:101920000A680D4B9A4292D10C4B1B680C4AA2FBE1
:1019300003239B0C03EB83035B00019302E0019BF9
:10194000013B0193019B002BF9D180E7022082E744
:101950000020014000230140120000105429002003
:1019600083DE1B4370470000074AD36823F4E0631B
:101970001B041B0C000200F4E060034343F0BF6350
:1019800043F40033D360704700ED00E030B4174BF0
:10199000DB68C3F30223C3F10704042C28BF04242B
:1019A0001D1D062D18D9033B4FF0FF3505FA04F431
:1019B00021EA0401994005FA03F322EA03031943DB
:1019C00000280BDB0901C9B200F1604000F561405D
:1019D00080F8001330BC70470023E5E700F00F00EB
:1019E0000901C9B2024B1954F4E700BF00ED00E051
:1019F00014ED00E0002807DB00F01F02400901237E
:101A00009340024A42F82030704700BF00E100E0F6
:101A10000138B0F1807F0AD2064B5860064AF021A7
:101A200082F823100020986007221A607047012076
:101A3000704700BF10E000E000ED00E030B4056842
:101A40002C6824F480242C60046863608368402B35
:101A500005D0036899600368DA6030BC704703689A
:101A60009A600368D960F8E710B40368D9B21039F6
:101A70000C4AA2FB014212090B4CA25CC2655F2911
:101A800009D923F47F7323F0030304338365806D46
:101A90005DF8044B704723F47F7323F003038365E1
:101AA000F5E700BFABAAAAAAE09D0108836A826994
:101AB00092B9012B0AD0022B02D00BB10020704743
:101AC000C36A13F0807F28D100207047C36AB3F146
:101AD000C07F24D000207047B2F5005F09D0022BF0
:101AE00025D9032B25D1C36A13F0807F23D1002091
:101AF0007047032B03D8DFE803F01404140A002016
:101B00007047C36A13F0807F0DD100207047C36A0D
:101B1000B3F1C07F09D00020704701207047012039
:101B20007047012070470120704701207047012055
:101B300070470020704701207047000070B50446D0
:101B4000FFF7BEFA002C5BD00546022384F835303F
:101B5000002384F834302268136823F001031360F3
:101B600023681A6812F0010F0AD0FFF7A9FA431B85
:101B7000052BF5D920236365032084F8350070BD5B
:101B80001A68204810406168A2680A43E1680A4365
:101B900021690A4361690A43A1690A43E1690A4369
:101BA000216A0A430243616A04291ED01A6026682A
:101BB000756925F00705636A1D43042B07D1A36AE5
:101BC0001D43E36A1BB12046FFF770FF90B97561B2
:101BD0002046FFF749FFE26D3F23934083600020DA
:101BE0006065012384F83530C9E7E16A206B014361
:101BF0000A43DBE740236365012084F83500BEE734
:101C00000120BCE73F8010F038B50446856D90F8A0
:101C1000340001282BD0012084F8340094F83500DA
:101C2000C0B2012804D0002384F83430022038BD2B
:101C3000022084F83500002060652046FFF7FEFE94
:101C4000E26D3F239340AB602268136843F01603B4
:101C50001360236C23B12268136843F008031360F8
:101C60002268136843F0010313600020DFE70220BD
:101C7000DDE770B50446866DFFF722FA94F835303B
:101C8000DBB2022B06D080236365002384F8343056
:101C9000012070BD05462268136823F01603136007
:101CA0002268536923F080035361236CE3B12268F7
:101CB000136823F0080313602268136823F00103FC
:101CC000136023681B6813F0010F11D0FFF7F8F9B8
:101CD000431B052BF5D920236365032084F83500C9
:101CE000002384F83430D4E7A36C002BDFD1E3E782
:101CF000E26D3F239340B360012384F83530002028
:101D000084F83400C5E790F83530DBB2022B03D0FD
:101D10008023436501207047052380F83530026831
:101D2000136823F00103136000207047F0B583B0FF
:101D3000044600230193724B1D68724BA3FB0535CB
:101D4000AD0A876D3E68C26D08239340334210D0C0
:101D500003681A6812F0040F0BD01A6822F004020C
:101D60001A60C26D08239340BB60436D43F00103CA
:101D70004365E26D01239340334209D022685269E2
:101D800012F0800F04D0BB60636D43F00203636503
:101D9000E26D04239340334209D02268126812F0A6
:101DA000020F04D0BB60636D43F004036365E26D12
:101DB00010239340334224D02268126812F0080F97
:101DC0001FD0BB6023681A6812F4802F0DD01B68E7
:101DD00013F4002F04D1236C9BB12046984710E0E8
:101DE000A36C73B1204698470BE01A6812F4807F09
:101DF00003D11A6822F008021A60236C0BB1204646
:101E00009847E26D20239340334255D022681268F0
:101E100012F0100F50D0BB6094F83530DBB2052BB8
:101E20000ED023681A6812F4802F33D01B6813F485
:101E3000002F2AD1636C002B3ED0204698473BE010
:101E40002268136823F0160313602268536923F095
:101E500080035361236CA3B12268136823F0080345
:101E60001360E26D3F239340BB60012384F835305B
:101E7000002384F83430236D002B3FD02046984750
:101E80003CE0A36C002BE7D1EBE7E36BA3B120466A
:101E9000984711E01A6812F4807F09D11A6822F07D
:101EA00010021A60012384F83530002384F834309E
:101EB000E36B0BB120469847636DFBB1636D13F084
:101EC000010F17D0052384F835302268136823F0FA
:101ED00001031360019B01330193AB4204D82368D3
:101EE0001B6813F0010FF5D1012384F8353000236E
:101EF00084F83430E36C0BB12046984703B0F0BD52
:101F000054290020B5814E1B90F835007047000021
:101F10005079137943EA002307480B50D07893781F
:101F20001B0443EA0063507843EA0023127813430A
:101F3000024A8B50704700BF4080024044800240FC
:101F400070B400220BE0C668551C05EB850506EB56
:101F5000C505DD600B5943F440030B510132032AE0
:101F600016D8C16802EB8203DC0001EBC303002535
:101F70000D515D609D60DD60951D40F825300D5967
:101F800045F480150D51022ADDD9C568DD60E1E711
:101F900000238362C168026841F21003D15070BC13
:101FA000704730B4002507E001696A1C02EB820229
:101FB00001EBC202DA600135032D1FD8016905EB80
:101FC0008503DC0001EBC30300220A515A609A60CA
:101FD000DA601A625A624FF000420A5144F2F85233
:101FE0005A605A6822F000425A6005F1120240F825
:101FF0002230022DD8D90269DA60DCE70023C365FC
:1020000003668366C36683650169026841F20C0357
:10201000D15030BC70472DE9F041876A00EB87034F
:102020009B698D681C68002CC0F2B58090463C1DF1
:1020300000EB8404E469002C40F0AF802C689C60C5
:102040005C6824F4FF5424F01F046E6834435C6021
:102050000C6814F0010F05D01C6824F440044E698C
:1020600034431C600C6814F0200F05D01C6824F069
:1020700040640E6934431C60096811F0040F03D0FA
:10208000196841F080011960196841F080511960A8
:10209000BFF35F8F196841F000411960BE464FF0F1
:1020A000000C012628E0196821F08041196030E019
:1020B00000EB84039B69196821F08051196019684D
:1020C00000292DDB211D00EB8101C96941BB0136CF
:1020D000AD6829689960596821F4FF5121F01F010A
:1020E0006A68114359600CF1010CBFF35F8F1968E6
:1020F00041F000411960A646A96859B3196821F05A
:1021000000511960B8F1000FCDD0196841F080413D
:1021100019600EF10104032CCAD9AEF10304C7E71C
:1021200000EB87039969002204E000EB83018969D1
:1021300001321F46B2420AD2BFF35F8F0B6823F011
:1021400000430B607B1C032BEFD9FB1EEDE7022045
:10215000BDE8F081B8F1000F18D01A6842F0804253
:102160001A601A6842F000521A60C26B0EF1040342
:1021700000EB8303DA61C0F828E072B6036C9C447C
:102180000CF10103036462B60020E1E71A6822F053
:1021900080421A60E5E70220DAE70220D8E7000073
:1021A00070B505460C46026813683B491940237C0C
:1021B000002B60D14FF40003607C00285DD14FF408
:1021C00080000343A0680343E07F43EA0043606963
:1021D0000343A07F002852D14FF400500343207FD7
:1021E00043EA0033A0690343207943EA802394F84B
:1021F0002000002845D14FF400700343E07B43EA00
:10220000C013606A034394F8280043EA00130B43A9
:1022100013602B681E680120FEF758FF2B681E60B4
:1022200029688A6922F0BE021204120CA36C1B04F6
:1022300094F84C0038BB80200343206D034394F88E
:102240005500012821D00020034394F856000128AE
:102250001DD00020034394F85400012819D0002019
:10226000034313438B612B689C690120FEF72EFF0B
:102270002B689C6170BD00239EE70020A1E7002031
:10228000ACE70020B9E70020D6E70820DCE704200F
:10229000E0E70220E4E700BF0F8120FFF8B5054624
:1022A0000C46026841F21803D35829491940237B90
:1022B000002B49D14FF08063607B43EA4063607F2D
:1022C000002843D14FF480100343A07B43EA4053DE
:1022D00060690343207F43EAC013A07F43EA801371
:1022E000206A034394F8240043EA80030B4341F23D
:1022F000180693512B689F590120FEF7E7FE2B68C3
:102300009F512279A36843EA4263A2691343226979
:10231000134394F8252043EAC213A26A43EA8203D6
:10232000226813432A6843F4000302F580521360C5
:102330002B6803F580531C680120FEF7C7FE2B684D
:1023400003F580531C60F8BD0023B5E70020BBE710
:10235000233FDEF870B5A4B0064601258DF83C5049
:102360008DF83D5000240D948DF84B408DF84A5067
:102370008DF848408DF830508DF84C408DF83B403A
:1023800014948DF854401D948DF878401F948DF866
:1023900082408DF880404FF4804310934FF40063E7
:1023A00011938DF881400BA9FFF7FAFE8DF80C50C0
:1023B0008DF80D508DF81D508DF80E5005948DF848
:1023C0001C408DF81E4008948DF824508DF8045060
:1023D0004FF4803302934FF4800306934FF400537D
:1023E00004938DF825500A94009469463046FFF70F
:1023F00055FF24B070BD7047002857D030B583B06A
:102400000446D0F88430002B34D000230193284BAD
:102410005A6C42F480425A645B6C03F4804301932B
:10242000019B244B5A6822F400025A605A68A16842
:102430000A435A605B68236803F580531A6842F0C8
:1024400001021A60FEF73CFE0546236803F580533F
:102450001B6813F0010F13D0FEF732FE401BB0F5DE
:10246000FA7FF2D90423C4F88830E023C4F884301A
:10247000012019E02323C0F88430FFF7BCFFC4E734
:102480002046FFF767FF2046FFF75AFD2046FFF77B
:1024900088FD626800212046FFF73AFD0020C4F85D
:1024A00088001023C4F8843003B030BD0120704789
:1024B0000038024000380140F8B5044631B11546F5
:1024C000D4F88430232B09D00120F8BDD0F888300F
:1024D00043F00103C0F888300120F6E700222046CF
:1024E000FFF799FD002835D1BFF34F8FA36A9A1DDE
:1024F00054F822600133A362032B01D9043BA36289
:10250000A36A2268063354F8231041F20403D15021
:10251000FEF7D6FD07463368002B30DA236841F218
:1025200014029A5812F4005F1CD1B5F1FF3FF2D0AB
:10253000FEF7C6FDC01BA84201D8002DEBD1D4F890
:10254000883043F00403C4F888304FF040533360C0
:102550000120BAE7D4F8883043F00203C4F8883089
:102560000120B2E7D4F8882042F00802C4F888209D
:1025700041F214029B58C4F88C300120A5E70020DA
:10258000A3E7000010B40A490C6924F440740C61FC
:102590000C6944F440740C610C6944F001040C6152
:1025A0000260BFF36F8F43605DF8044B704700BF5C
:1025B000003C0240074B1A6922F440721A611A6902
:1025C00042F400721A611A6942F001021A61016054
:1025D000704700BF003C0240074B1A6922F440726A
:1025E0001A611A6942F480721A611A6942F0010292
:1025F0001A610180704700BF003C0240064B1A6917
:1026000022F440721A611A691A611A6942F00102D1
:102610001A610170704700BF003C0240274BDB6825
:1026200013F0100F07D0264AD36943F01003D3618B
:10263000224B1022DA60214BDB6813F0200F07D009
:102640001F4AD36943F00803D3611C4B2022DA6090
:102650001A4BDB6813F0400F07D0194AD36943F0D7
:102660000403D361154B4022DA60144BDB6813F08E
:10267000800F07D0124AD36943F00203D3610F4B96
:102680008022DA600D4BDB6813F4807F08D00C4A9F
:10269000D36943F00103D361084B4FF48072DA60D1
:1026A000064BDB6813F0020F07D0054AD36943F0ED
:1026B0002003D361014B0222DA607047003C0240E4
:1026C000B84400207047704710B53B4BDB6813F4EB
:1026D000F97F13D0394B1B78DBB2012B3DD0374B40
:1026E0001B78DBB2022B3ED0344B5C69FFF796FFC0
:1026F0002046FFF7E8FF314B00221A702E4BDB68B3
:1027000013F0010F13D02C4B0122DA602B4B1B78F6
:10271000DBB293422AD0294B1B78DBB2022B43D089
:10272000264B5869FFF7CEFF244B00221A70234B2B
:102730001B788BB9204B1A6922F4004222F0FF0269
:102740001A611A6922F080721A611A6922F0007205
:102750001A611A4B00221A7610BD184BDC684FF034
:10276000FF32DA60C2E7154B1C69BFE7134B5A68AA
:10277000013A5A605B685BB1104CE068FFF7A2FF5A
:10278000E3680133E360E068217A00F0C5F8CEE742
:102790000A4B4FF0FF34DC6000221A7000F0EAF8B8
:1027A0002046FFF78FFFC2E700F0E4F8034B1869FB
:1027B000FFF788FFB8E700BF003C0240B8440020A4
:1027C000094B1B69002B01DB00207047064B074AB1
:1027D0005A6002F188325A601B69002B01DB00202D
:1027E00070470120704700BF003C0240230167454D
:1027F00038B50446144B0022DA61FEF761FC054649
:10280000124BDB6813F4803F0AD0B4F1FF3FF7D0DE
:1028100024B1FEF755FC401BA042F1D903200DE086
:102820000A4BDB6813F0010F02D0084B0122DA607B
:10283000064BDB6813F4F97F01D1002038BDFFF7A8
:10284000EDFE0120FAE700BFB8440020003C024042
:10285000F8B516461B4A127E012A30D004460D46B2
:102860001F46184B01221A764CF25030FFF7C0FF7A
:1028700090B9ACB1012C18D0022C1BD032463B468B
:102880002846FFF77FFE4CF25030FFF7B1FF0E4AAB
:10289000136923F0010313610A4B00221A76F8BD75
:1028A000F1B22846FFF7AAFEEDE7B1B22846FFF7DE
:1028B00093FEE8E731462846FFF77CFEE3E7022077
:1028C000EDE700BFB8440020003C0240114A136904
:1028D00023F44073136103290ED0012913D00D4A4C
:1028E000136943F4004313610A4A136943EA002061
:1028F00040F4803010617047136943F4004343F0A3
:1029000004031361F0E7034A136943F004031361FE
:10291000EAE700BF003C024010B449B1012924D0CD
:10292000022902D04FF4407403E04FF4007400E039
:1029300000240B2800D904300D4B196921F4407193
:1029400019611A6922431A611A6922F0F8021A61A0
:102950001A6942EAC00040F0020018611A6942F4A4
:1029600080321A615DF8044B70474FF48074E0E7E1
:10297000003C0240164B1B6813F4007F10D0144B30
:102980001A6822F400721A601A6842F400621A602F
:102990001A6822F400621A601A6842F400721A601F
:1029A0000B4B1B6813F4806F10D0094B1A6822F48C
:1029B00080621A601A6842F480521A601A6822F41F
:1029C00080521A601A6842F480621A60704700BF31
:1029D000003C0240F8B5234B1B7E012B40D004463F
:1029E0000E46204B01221A764CF25030FFF700FFC2
:1029F000074680BB4FF0FF3333602368012B16D0AE
:102A0000A568E368A2681344AB4222D9217C28461A
:102A1000FFF782FF4CF25030FFF7EAFE124A1369CB
:102A200023F0FA031361074690B90135E9E76168BD
:102A3000207CFFF74BFF4CF25030FFF7D9FE0746E2
:102A4000094A136923F4004323F00403136100E0EF
:102A50003560FFF78FFF034B00221A763846F8BD2A
:102A60000227FBE7B8440020003C024000230F2B64
:102A700000F2EA80F0B482B05EE086685F00032472
:102A8000BC4026EA0406CC68BC40344384604668F7
:102A900026EA02064C68C4F300129A4032434260B0
:102AA00058E0DC08083450F8247003F00702960060
:102AB0000F22B24027EA02070A69B2403A4340F8BF
:102AC00024205BE0092200E00022B2403A430234B5
:102AD0005E4E46F824205E4A9468EA4324EA0506DE
:102AE0004F6817F4801F01D045EA0406584CA660D1
:102AF000E46802EA04064F6817F4001F01D045EAB3
:102B00000406534CE660646802EA04064F6817F452
:102B1000003F01D045EA04064D4C6660246822401F
:102B20004E6816F4803F01D045EA0402484C22600A
:102B300001330F2B00F2858001229A400C6804EAD1
:102B4000020532EA0404F3D14C6804F00304013CAA
:102B5000012C92D94A6802F00302032A09D0C46802
:102B60005E000322B24024EA02048A68B240224393
:102B7000C2604A6802F00302022A92D004685E0032
:102B80000322B24024EA02044A6802F00302B2407F
:102B9000224302604A6812F4403FC9D000220192E9
:102BA0002C4A546C44F480445464526C02F48042C5
:102BB0000192019A9C08A61C244A52F8267003F040
:102BC000030296000F22B24027EA0207224A9042EF
:102BD0003FF47AAF02F58062904222D002F5806223
:102BE000904220D002F5806290421ED002F58062B1
:102BF00090421CD002F5806290421AD002F58062A9
:102C0000904218D002F58062904216D002F58062A0
:102C1000904214D002F5806290423FF453AF0A22F2
:102C200053E7012251E702224FE703224DE7042236
:102C30004BE7052249E7062247E7072245E7082236
:102C400043E702B0F0BC7047704700BF0038014056
:102C5000003C014000380240000002400AB181619E
:102C60007047090481617047436901EA030221EA60
:102C7000030141EA02418161704790F83E30DBB2C6
:102C8000402B10D00369B3F5804F1BD0036D002B90
:102C900039D1436CC3F3C813026803F0060343F051
:102CA000F00313617047036D2BB9436C026803F0A6
:102CB000FE0313617047436C026843F00103DBB20B
:102CC0001361704790F83D30DBB2212B0FD0436C7D
:102CD000026843F00103DBB21361436B6BB1DB6B42
:102CE0005BB10268536843F4006353607047436C00
:102CF000026803F0FE031361EFE7836B33B1DB6B14
:102D0000002BEED102E0036D012B00D07047436C25
:102D1000C3F3C813026803F0060343F0F103136121
:102D2000F4E7436C0268DBB21361436B3BB1DB6BCE
:102D30002BB10268536843F4006353607047836BA0
:102D4000002BFBD0DB6B002BF3D1F7E710B48BB07B
:102D500090F83E30DAB2C16A046B90F83D30DBB2D5
:102D6000222B0BD00023099303685A6909929B69AF
:102D70000993099B0BB05DF8044B7047036D0BB9C9
:102D8000402A17D0036D1BB90369B3F5404F19D022
:102D9000438D9BB2002B25D1029303685A6902929E
:102DA0009A690292029A1A6842F400721A60002329
:102DB0000365DFE7009303685A6900929B690093FB
:102DC000009BD7E70023019303685A6901929A692F
:102DD0000192019A1A6842F480721A60036D0133FD
:102DE0000365C7E7438D9BB2012B25D0438D9BB272
:102DF000022B7BD00268136843F48063136003687E
:102E00005A6812F4006F0ED011F5803F07D00129E7
:102E100005D0082903D0102901D0202903D15A68F0
:102E200042F480525A600023089303685A6908925A
:102E30009B690893089BBAE711F5803F11D00829D8
:102E400034D0202932D0122C2ED0042940D002298F
:102E50003ED010293CD00268136823F480631360CD
:102E60003BE00268136823F48063136003685A68C8
:102E700012F4006F0CD01A6822F480621A600023EA
:102E8000039303685A6903929B690393039B8EE73C
:102E9000002204925A6904929A690492049A1A6868
:102EA00042F400721A6082E70129CED002681368EA
:102EB00023F4806313600023069303685A69069223
:102EC0009A690692069A1A6842F400721A606EE7CE
:102ED0000268136843F4806313600023059303685A
:102EE0005A6905929B690593059B60E704290ED0FA
:102EF00002290CD010290AD00268136823F48063D9
:102F000013600268136843F40063136004E002680E
:102F1000136843F48063136003685A6812F4006F07
:102F20000ED011F5803F07D0012905D0082903D024
:102F3000102901D0202903D15A6842F480525A60E6
:102F40000023079303685A6907929B690793079BBD
:102F50002DE7438D9BB25BB1426A036812781A6118
:102F6000436A01334362438D9BB2013B9BB243856D
:102F70007047438D9BB25BB103681A69436A1A704C
:102F8000436A01334362438D9BB2013B9BB243854D
:102F90007047000082B0002301930E4B1B68DB08D2
:102FA0000D4AA2FB03231B0A03EB83030193019B3E
:102FB000013B0193019B33B103681B6813F4007F4D
:102FC000F5D1002004E0036C43F0200303640120EA
:102FD00002B070475429002089B5F814C36AB3F5CC
:102FE0002A0F04D0C36AB3F12A4F03D070470123DC
:102FF000C36270470823C362F8E70000002800F0AE
:10300000CC80F8B5044690F83D30002B77D02423CF
:1030100084F83D302268136823F0010313602268AE
:10302000136843F4004313602268136823F40043D9
:10303000136001F07BFB62685A4B9A4264D85A4B8A
:1030400098428CBF00230123002B40F0A880574DED
:10305000A5FB0035AF0C2668716821F03F0141EAFD
:103060009541716021680B6A23F03F0365684D4A02
:1030700095424FD87A1C13430B622568E96921F405
:103080004F4121F0FF016368464A93424CD8013812
:103090005B00B0FBF3F0013040F6FC73184278D0CF
:1030A000C0F30B030B43EB6121680B6823F0C003F3
:1030B000E269206A024313430B6021688B6823F4A2
:1030C000034323F0FF032269E068024313438B604C
:1030D0002168CB6823F0FF036269A06902431343B0
:1030E000CB602268136843F0010313600020206462
:1030F000202384F83D30206384F83E00F8BD80F83A
:103100003C300AF06DFF82E7294B98428CBF0023C8
:10311000012399E74FF4967202FB07F2254DA5FBB8
:10312000025292090132A6E7A268BAB9461E03EB21
:103130004307B6FBF7F60136C6F30B06B6FA86F67A
:10314000760946BBC2B9421E03EB4303B2FBF3F25E
:103150000132C2F30B0242F40043A3E7461E03EB25
:10316000830707EB8707B6FBF7F60136C6F30B06B6
:10317000B6FA86F67609E4E7421E03EB830303EB17
:103180008303B2FBF3F20132C2F30B0242F4404379
:1031900088E7042386E7012384E7012070470120A4
:1031A000ACE700BFA08601007F841E0083DE1B43C6
:1031B000FF083D00D34D621030B482B0002401946A
:1031C00090F83D40E4B2202C5CD1314C2468E408F6
:1031D000304DA5FB0454240A04EB840404EB84045E
:1031E0000194019C013C0194019C002C3BD004689B
:1031F000A56915F0020FF4D190F83C50012D45D08F
:10320000012580F83C50256815F0010F03D1256891
:1032100045F00105256005682C6824F400642C60E5
:10322000212480F83D40402480F83E40002404647E
:10323000049D4562BDF814504585458D0585164DA4
:10324000C56241648264C36404650268136843F420
:103250008073136080F83C400268536843F4E06375
:10326000536020460FE000230363202280F83D20B6
:1032700080F83E30026C42F02002026480F83C305C
:10328000012000E0022002B030BC70470220FAE7C3
:103290005429002089B5F8140000FFFF30B482B033
:1032A0000024019490F83D40E4B2202C63D1354CC9
:1032B0002468E408344DA5FB0454240A04EB840478
:1032C00004EB84040194019C013C0194019C002CBA
:1032D00042D00468A56915F0020FF4D190F83C5073
:1032E000012D4CD0012580F83C50256815F0010FC8
:1032F00003D1256845F00105256005682C6824F494
:1033000000642C60222480F83D40402480F83E4038
:1033100000240464049D4562BDF814504585458D24
:1033200005851A4DC56241648264C3640465026800
:10333000136843F4806313600268136843F4807376
:10334000136080F83C40038D23B10268536843F456
:10335000E063536000200FE000230363202280F825
:103360003D2080F83E30026C42F02002026480F87A
:103370003C30012000E0022002B030BC7047022047
:10338000FAE700BF5429002089B5F8140000FFFFB8
:1033900070477047704708B590F83D30DAB2438DFA
:1033A0009BB283B1416A036809781961436A0133AA
:1033B0004362438D9BB2013B9BB24385438D9BB2DD
:1033C0000BB9292A00D008BD0268536823F4806332
:1033D000536021230363282380F83D30FFF7DAFF91
:1033E000F1E7704708B590F83D30DAB2438D9BB2F3
:1033F00083B103681969436A1970436A01334362F0
:10340000438D9BB2013B9BB24385438D9BB20BB96D
:103410002A2A00D008BD0268536823F480635360F1
:1034200022230363282380F83D30FFF7DAFFF1E71A
:10343000704700B583B090F83D3003F02803282B87
:103440000CD00023019302685169019192690192A5
:10345000019A80F83C3003B05DF804FB02685368C1
:1034600023F48063536011F0040F0BD0002311F09C
:10347000800F09D18289002180F83C101946FFF79E
:10348000D7FFE8E70123F2E7028BF4E7704700007B
:1034900008B590F83D30DBB2C26A082A01D0202A74
:1034A00001D1282B06D0212B1ED003686FF4806237
:1034B0005A6108BD1A4BC3620268536823F4E06383
:1034C000536003686FF480625A610268136823F4E2
:1034D0008063136000230363202280F83D2080F87E
:1034E0003E30FFF7D3FFE4E70D4BC36221230363B4
:1034F000202380F83D30002380F83E300268536876
:1035000023F4E063536003686FF480625A610268D9
:10351000136823F480631360FFF73CFFC9E700BF23
:103520000000FFFF08B5C26A90F83D30DBB2212BE6
:1035300000D008BD438D9BB263B1426A0368127824
:103540001A61436A01334362438D9BB2013B9BB2D4
:103550004385EEE7082A04D0202A02D012F5803FE6
:1035600019D10268536823F4E0635360026813685A
:1035700043F40073136000230363202380F83D307D
:1035800090F83E30DBB2402B15D0002380F83E305F
:10359000FFF7FEFECDE70268536823F4E063536053
:1035A00011230363002380F83E30202380F83D3050
:1035B000FFF7EEFEBDE7002380F83E300EF094FCEE
:1035C000B7E708B590F83D30026D9AB9C36C012B8E
:1035D00008D0836CC3F3072302681361036D0133C2
:1035E000036508BD836C0268DBB21361036D0233AF
:1035F0000365F6E7DBB2026D012A23D0026D022AD1
:10360000EFD1222B26D0428D92B20AB1212B2AD0A3
:10361000428D92B2002AE4D1212BE2D10268536894
:1036200023F4E06353600268136843F4007313608B
:1036300000230363202280F83D2080F83E300EF006
:1036400053FCCEE7836C0268DBB21361036D013378
:103650000365C6E70268136843F480731360036D63
:1036600001330365BDE7426A036812781A61436A51
:1036700001334362438D9BB2013B9BB24385B0E76C
:1036800010B590F83D30DBB290F83E20D2B2C46A5B
:10369000018D09B9212B04D0212B3BD0402A37D0F2
:1036A00010BD082C04D0202C02D014F5803F19D175
:1036B0000268536823F4E06353600268136843F4BC
:1036C0000073136000230363202380F83D3090F8DB
:1036D0003E30DBB2402B15D0002380F83E30FFF7A0
:1036E00057FEDDE70268536823F4E063536011235B
:1036F0000363002380F83E30202380F83D30FFF73D
:1037000047FECDE7002380F83E300EF0EDFBC7E723
:10371000222BC5D1438D9BB22BB90268536823F489
:1037200080635360BCE790F83E30DBB2402B0CD096
:10373000426A036812781A61436A01334362438D17
:103740009BB2013B9BB24385AAE7FFF73AFFA7E78D
:1037500008B5C26A438D9BB2042B14D0438D9BB233
:10376000032B22D0438D9BB2022B39D003681A69F8
:10377000436A1A70436A01334362438D9BB2013B33
:103780009BB2438510E00268536823F48063536062
:1037900003681A69436A1A70436A01334362438DAE
:1037A0009BB2013B9BB2438508BD01684B6823F483
:1037B00080634B60042A06D0022A04D00268136892
:1037C00023F48063136003681A69436A1A70436ABA
:1037D00001334362438D9BB2013B9BB24385E3E7D8
:1037E000012A0BD0102A09D0042A38D0022A36D058
:1037F0000268136843F40073136004E002681368FE
:1038000023F48063136003681A69436A1A70426A7A
:10381000531C4362438D9BB2013B9BB243850368BB
:103820001B695370436A01334362438D9BB2013B72
:103830009BB243850268536823F44073536020238E
:1038400080F83D3090F83E30DBB2402B0DD00023A5
:1038500080F83E3012230363FFF79BFDA4E7026864
:10386000136843F480631360CDE7002380F83E3093
:1038700003630EF0EFFA97E790F83D30DBB2222BAE
:1038800000D0704710B50446438D9BB2032B15D969
:1038900003681A69436A1A70436A01334362438DAD
:1038A0009BB2013B9BB24385438D9BB2032B0FD14F
:1038B0000268536823F48063536009E0C26A022AF5
:1038C00001D0012B05D92268536823F4806353602B
:1038D00010BDFFF75FFB00282ED12268136823F488
:1038E000806313602268536823F4E06353602368A5
:1038F0001A69636A1A70636A01336362638D9BB2EB
:10390000013B9BB26385202384F83D3094F83E3020
:10391000DBB2402B08D0002384F83E30122323630F
:103920002046FFF736FDD3E7002384F83E302363BB
:1039300020460EF08FFACBE72268536823F4E06349
:10394000536023681A69636A1A70636A0133636299
:10395000638D9BB2013B9BB26385202384F83D308D
:10396000002384F83E3020460EF0F2F9B0E77047AD
:1039700000B583B000230193806B90F83D20D2B254
:10398000324B1B68DB083249A1FB03131B0A03EB14
:103990008303C3EBC3030193019B43B1019B013B31
:1039A000019303681B6813F4007FF5D103E0036CF7
:1039B00043F020030364436B0BB10021D963836B95
:1039C0000BB10021D96301680B6823F480630B609D
:1039D00000234385436B0BB100211965836B0BB149
:1039E0000021196501680B6823F001030B6090F852
:1039F0003D30DBB2602B0ED002F02802282A14D012
:103A0000202380F83D30002380F83E300EF0A0F9EE
:103A100003B05DF804FB202380F83D30002380F8DC
:103A20003E300364FFF7A3FFF2E70268136843F038
:103A3000010313600268136843F48063136000237A
:103A40000363282380F83D30E0E700BF54290020BD
:103A500089B5F81410B5044690F83D30DBB290F803
:103A60003E20D2B2102A36D0402A34D003F02802A9
:103A7000282A38D02268526812F4006F07D1602BD0
:103A800005D0202384F83D30002384F83E30002305
:103A9000236323685A6812F4006F48D05A6822F4EE
:103AA00000625A60626B92F83530DBB2012B20D095
:103AB000444B1365606BFEF726F9002849D0226855
:103AC000136823F001031360202384F83D30606BFA
:103AD000036D98473DE0222BC8D121680A6822F483
:103AE00000620A60C2E700232363282384F83D3084
:103AF000CFE7A36B334A1A65A06BFEF704F940B316
:103B000023685A6912F0400F05D01A69636A1A7067
:103B1000636A013363622268136823F00103136050
:103B2000202384F83D30A06B036D984711E094F892
:103B30003D20D2B2602A1FD05A6912F0400F05D042
:103B40001A69636A1A70636A0133636220460EF071
:103B5000FFF8236C13F00F0F04D02268536823F48E
:103B6000E063536094F83D30DBB2226C12F0040F36
:103B700001D0282B18D010BD202284F83D2000222F
:103B800022645A6912F0400F05D01A69636A1A70EC
:103B9000636A013363622268136823F001031360D0
:103BA0002046FFF7E4FED4E7074BE36200232363DC
:103BB000202284F83D2084F83E302046FFF766FC42
:103BC000D9E700BF713900080000FFFF30B583B0AE
:103BD000044690F83D50EDB20268536823F4E06368
:103BE00053600023019303685A6901921A6842F0F6
:103BF00001021A60019B0268136823F4806313605A
:103C000003685A6812F4006F38D0222D21D02A2D73
:103C10001FD0426B1268526892B24285428D92B2B6
:103C20001AB1026C42F0040202645A6822F4006283
:103C30005A60606BFEF768F901281FD0636B444A35
:103C40001A65606BFEF75FF8C0B1606B036D984753
:103C500014E0A26B1268526892B26285628D92B2D1
:103C60001AB1226C42F0040222645A6822F4006203
:103C70005A60A06BFEF748F9012842D1638D9BB2D0
:103C800033B323685A6912F0040F0AD01A69636AC1
:103C90001A70636A01336362638D9BB2013B9BB20E
:103CA000638523685A6912F0400F0AD01A69636A63
:103CB0001A70636A01336362638D9BB2013B9BB2EE
:103CC0006385638D9BB21BB1236C43F004032364B3
:103CD000236C13BB2A2D25D094F83D30DBB2282B62
:103CE00029D0236B222B01D0222D19D1002323634D
:103CF000202284F83D2084F83E302046FFF771FBF7
:103D00000EE0A36B124A1A65A06BFDF7FCFF0028BA
:103D1000B4D0A06B036D9847B0E72046FFF79AFE3A
:103D200003B030BD00232363282384F83D302046B0
:103D3000FFF757FBD0E7074BE36200232363202202
:103D400084F83D2084F83E302046FFF79FFBE7E7EC
:103D5000713900080000FFFFF8B504460268556895
:103D6000C66A90F83E30DBB290F83D10C8B2102B16
:103D700013D0402B11D0236C002B7AD05369002133
:103D800013F0020F78D015F4007F75D0236C03B1C7
:103D900091692046FFF74DFBF8BDD2F818C0516974
:103DA00011F0010705D1B6F52A0FF5D0B6F12A4F6B
:103DB000F2D017B115F4007F29D111F0080F02D00D
:103DC00015F4007F2AD111F0020F02D015F4007F04
:103DD00028D11CF0040F31D0526812F4006FDBD1EF
:103DE00011F0800F05D015F4806F02D011F0040F90
:103DF0001CD011F0040FCFD015F4007FCCD02128B7
:103E000018D0402BC8D12046FFF7DBFBC4E7204683
:103E1000FFF7E4F82046FEF730FFBDE72046FEF747
:103E200080FFB9E72046FEF791FFB5E72046FFF790
:103E300027FCB1E72046FFF775FBADE7536813F4A5
:103E4000006FA9D111F0400F05D015F4806F02D09A
:103E500011F0040F09D011F0040F9DD015F4007F6C
:103E60009AD02046FFF774FC96E72046FFF704FD42
:103E700092E79169536983E713F0100F02D015F4AC
:103E8000007F18D121281AD0292818D013F0400F0C
:103E900005D015F4806F02D013F0040F28D013F072
:103EA000040F3FF479AF15F4007F3FF475AF20465F
:103EB000FFF75FF870E72046FFF788FE6CE713F026
:103EC000800F05D015F4806F02D013F0040F0BD0D3
:103ED00013F0040F3FF460AF15F4007F3FF45CAFC4
:103EE0002046FFF736F857E72046FFF754FA53E726
:103EF0002046FFF777FA4FE7F8B5044603685D6997
:103F00005F6890F83E20D2B215F4807F07D017F496
:103F1000807F3CD06FF480715961012600E000265B
:103F200015F4007F08D017F4807F05D046F0020614
:103F300023686FF40071596115F4806F19D017F47C
:103F4000807F16D0638D99B294F83D30DBB2206B40
:103F5000202A1ED023686FF48061596146F0040660
:103F6000102A01D0402A04D12268136843F4007358
:103F7000136015F4006F08D017F4807F05D046F069
:103F8000080623686FF400625A6186B9F8BD0026FE
:103F9000C6E70029DED1212B05D0292B03D0282B01
:103FA000D8D12128D6D12046FFF772FAE1E7236C59
:103FB0001E4326642046FFF74DFDE7E790F83D30AD
:103FC000DBB2202B01D002207047242380F83D3043
:103FD0000268136823F0010313600268536A23F038
:103FE000100353620268536A1943516202681368EE
:103FF00043F001031360202380F83D300020704718
:1040000090F83D30DBB2202B01D0022070472423F2
:1040100080F83D300268136823F0010313600268E2
:10402000536A9BB223F00F03194389B251620268AD
:10403000136843F001031360202380F83D30002013
:10404000704740B338B5044603684CF6CC421A605A
:10405000036845F255521A60036842685A60036863
:1040600082689A60FDF72CF805462368DA6812F03A
:10407000030F0BD0FDF724F8401B3128F5D9236836
:10408000DB6813F0030FF0D0032003E04AF6AA2206
:104090001A60002038BD0120704703684AF6AA2242
:1040A0001A6000207047000010B582B00023019311
:1040B000194B1A6C42F080521A641B6C03F0805347
:1040C0000193019B154B01221A60FCF7F9FF04468E
:1040D000134B5B6813F4803F08D1FCF7F1FF001B22
:1040E000B0F57A7FF4D9032002B010BD0D4B012248
:1040F0001A60FCF7E5FF0446094B5B6813F4003FC8
:1041000007D1FCF7DDFF001BB0F57A7FF4D903205F
:10411000EAE70020E8E700BF0038024040000E4216
:104120000070004044000E42002800F0DF8170B5AE
:1041300082B00446036813F0010F3BD0A64B9B6886
:1041400003F00C03042B2CD0A34B9B6803F00C034F
:10415000082B21D06368B3F5803F4FD0B3F5A02F73
:1041600052D09D4B1A6822F480321A601A6822F4E9
:1041700080221A606368002B50D0FCF7A1FF05462F
:10418000954B1B6813F4003F14D1FCF799FF401BBB
:104190006428F5D90320B0E18F4B5B6813F4800FDE
:1041A000D8D08D4B1B6813F4003F03D06368002BFD
:1041B00000F09E81236813F0020F54D0864B9B6859
:1041C00013F00C0F3ED0844B9B6803F00C03082BBC
:1041D00033D0E368002B67D0804B01221A60FCF7D4
:1041E0006FFF05467C4B1B6813F0020F53D1FCF7A1
:1041F00067FF401B0228F5D903207EE1764A136849
:1042000043F480331360B5E7734B1A6842F480229D
:104210001A601A6842F480321A60ABE7FCF750FF6C
:1042200005466D4B1B6813F4003FC3D0FCF748FFF5
:10423000401B6428F5D903205FE1674B5B6813F4EA
:10424000800FC6D1644B1B6813F0020F03D0E368E4
:10425000012B40F04F81604A136823F0F803216975
:1042600043EAC1031360236813F0080F40D0636969
:1042700063B35B4B01221A60FCF722FF0546564BE5
:104280005B6F13F0020F33D1FCF71AFF401B0228BB
:10429000F5D9032031E1504A136823F0F80321696E
:1042A00043EAC1031360DEE74C4B00221A60FCF7BF
:1042B00007FF0546484B1B6813F0020FD3D0FCF7ED
:1042C000FFFE401B0228F5D9032016E1444B0022D3
:1042D0001A60FCF7F5FE05463F4B5B6F13F0020FCB
:1042E00006D0FCF7EDFE401B0228F5D9032004E1BF
:1042F000236813F0040F78D0374B1B6C13F0805FEA
:104300000DD100230193344B1A6C42F080521A6491
:104310001B6C03F080530193019B012500E00025F5
:10432000304B1B6813F4807F21D0A368012B32D05F
:10433000052B36D0284B1A6F22F001021A671A6F2C
:1043400022F004021A67A368002B34D0FCF7B8FEF1
:104350000646214B1B6F13F0020F45D1FCF7B0FE50
:10436000801B41F288339842F3D90320C5E01D4AEF
:10437000136843F480731360FCF7A2FE0646194BE2
:104380001B6813F4807FD0D1FCF79AFE801B0228B3
:10439000F5D90320B1E0104A136F43F0010313670E
:1043A000D1E70D4B1A6F42F004021A671A6F42F000
:1043B00001021A67C7E7FCF783FE0646064B1B6F30
:1043C00013F0020F10D0FCF77BFE801B41F2883304
:1043D0009842F3D9032090E00038024000004742A1
:1043E000800E474200700040EDB9A369002B00F039
:1043F0008380494A926802F00C02082A51D0022BAD
:1044000017D0464B00221A60FCF75AFE0446424B76
:104410001B6813F0007F42D0FCF752FE001B0228FD
:10442000F5D9032069E03C4A136C23F080531364F0
:10443000DBE73A4B00221A60FCF742FE0546364B9A
:104440001B6813F0007F06D0FCF73AFE401B0228E1
:10445000F5D9032051E0E369226A1343626A43EA13
:104460008213A26A5208013A43EA0243E26A43EA2B
:104470000263294A5360294B01221A60FCF720FE8F
:104480000446254B1B6813F0007F06D1FCF718FE8D
:10449000001B0228F5D903202FE000202DE000208A
:1044A0002BE0012B2BD01C4B5B6803F48001E269ED
:1044B000914226D103F03F02216A8A4223D1616AE8
:1044C00047F6C0721A40B2EB811F1ED103F440318F
:1044D000A26A5208013AB1EB024F18D103F070639F
:1044E000E26AB3EB026F14D1002006E001207047AE
:1044F000012002E0012000E0002002B070BD012098
:10450000FBE70120F9E70120F7E70120F5E70120AB
:10451000F3E70120F1E700BF0038024060004742A6
:10452000F8B5244B9B6803F00C03042B3DD0082BFB
:104530003DD1204B5A6802F03F025B6813F4800FB4
:1045400012D01C4B5968C1F3881100231A48A1FBF3
:104550000001FCF7B9FB174B5B68C3F30143013360
:104560005B00B0FBF3F023E0124B5B68C3F38813EE
:104570005C010025E41A65F10005AE0146EA946687
:10458000A701381B66EB0501CC0044EA5074C50056
:10459000E81844F100018B0243EA9053840220465C
:1045A00019460023FCF790FBD5E7034800E00348D9
:1045B000F8BD00BF0038024040787D010024F400BF
:1045C000002800F09B8070B50D4604464F4B1B68D9
:1045D00003F00F038B4208D2CBB24C4A137013681E
:1045E00003F00F038B4240F08B80236813F0020F1F
:1045F00017D013F0040F04D0454A936843F4E053F6
:104600009360236813F0080F04D0414A936843F481
:10461000604393603E4A936823F0F003A1680B4324
:104620009360236813F0010F32D06368012B21D00F
:104630009A1E012A25D9364A126812F0020F61D05B
:1046400033498A6822F0030213438B60FCF738FD7C
:1046500006462F4B9B6803F00C036268B3EB820F96
:1046600016D0FCF72DFD801B41F288339842F0D91B
:10467000032042E0264A126812F4003FE0D10120F4
:104680003BE0234A126812F0007FD9D1012034E0C8
:104690001E4B1B6803F00F03AB4207D9EAB21B4B5A
:1046A0001A701B6803F00F03AB422DD1236813F07F
:1046B000040F06D0164A936823F4E053E1680B43D5
:1046C0009360236813F0080F07D0114A936823F40E
:1046D0006043216943EAC1039360FFF721FF0C4B5C
:1046E0009B68C3F303130B4AD35CD8400A4B186092
:1046F0000A4B1868FCF79AFC002070BD0120704737
:104700000120FAE70120F8E70120F6E7003C02402B
:10471000003802400C9F01085429002004000020AA
:10472000014B1868704700BF5429002008B5FFF7F7
:10473000F7FF044B9B68C3F38223034AD35CD84042
:1047400008BD00BF003802401C9F010830B583B08F
:104750000446036813F0430F14D1236813F00C0FC1
:1047600069D1236813F0200F40F0BE80236813F056
:10477000100F00F0208194F82C20904B1A6000203C
:1047800003B030BD8E4B00221A60FCF799FC054641
:104790008C4B1B6813F0006F06D0FCF791FC431B99
:1047A000022BF5D90320EBE7236813F0010F07D0A4
:1047B0006268A3681B0743EA8213824AC2F8843006
:1047C000236813F0020F15D07E4AD2F88410606877
:1047D000E3681B0643EA801301F0E0410B43C2F893
:1047E0008430D2F88C3023F01F03E16901390B4388
:1047F000C2F88C30236813F0400F0AD06268E36877
:104800001B0643EA8213A26843EA02736D4AC2F8A8
:1048100084306B4B01221A60FCF752FC0546694B51
:104820001B6813F0006F98D1FCF74AFC401B02286C
:10483000F5D90320A4E7644B00221A60FCF740FC82
:104840000546604B1B6813F0005F06D0FCF738FC90
:10485000431B022BF5D9032092E7236813F0040FC2
:1048600016D0584AD2F88810206963691B0643EABB
:10487000801301F0E0410B43C2F88830D2F88C304D
:1048800023F4F853216A013943EA0123C2F88C303A
:10489000236813F0080F14D04A4AD2F888302169EF
:1048A00003F0706343EA8113A16943EA0173C2F81C
:1048B0008830D2F88C3023F44033616A0B43C2F85D
:1048C0008C30414B01221A60FCF7FAFB05463D4B48
:1048D0001B6813F0005F7FF444AFFCF7F1FB401B53
:1048E0000228F4D903204BE700230193354B1A6CBF
:1048F00042F080521A641B6C03F080530193019BB9
:10490000324A136843F480731360FCF7D9FB054601
:104910002E4B1B6813F4807F06D1FCF7D1FB401BA4
:104920000228F5D903202BE7264B1B6F13F44073A5
:1049300012D0A26A02F440729A420DD0214B1A6F33
:1049400022F44072224901200860002008601A67A2
:104950001B6F13F0010F12D1A36A03F44072B2F57A
:10496000407F1DD0174A936823F4F81393601549CC
:104970000B6FA26AC2F30B0213430B67F6E6FCF758
:104980009FFB05460F4B1B6F13F0020FE4D1FCF7A2
:1049900097FB401B41F288339842F3D90320EFE69E
:1049A00008498A6822F4F81223F0704323F4407314
:1049B00013438B60DBE70020E2E600BFE0114742D3
:1049C00068004742003802407000474200700040D3
:1049D000400E474210B5044603689A6812F4805F9F
:1049E00003D0DB6813F4807F0FD123689A6812F438
:1049F000005F03D0DB6813F4007F0FD10C4B4FF442
:104A000000325A610123637710BD0DF0E0FB22688C
:104A1000D368DBB263F4C073D360E6E7204600F0EE
:104A200019FB2268D368DBB263F42073D360E5E737
:104A3000003C014038B504460268D36823F0A00367
:104A4000D360FCF73DFB05462368DB6813F0200FBD
:104A500007D1FCF735FB401BB0F57A7FF4D9032072
:104A600000E0002038BD70B50368DA6812F0400F2E
:104A700002D00025284670BD0446DA6842F0800264
:104A8000DA60FCF71DFB064600252368DB6813F09F
:104A9000400FEFD1002DEDD1FCF712FB831BB3F5D6
:104AA0007A7FF2D9042363770125EEE70268D368A1
:104AB00023F08003D36003689B6813F0200F01D0BC
:104AC0000020704710B50446FFF7B4FF10B104236F
:104AD0006377012010BD002841D010B50446437F04
:104AE000E3B1022363772368CA225A622368532200
:104AF0005A622046FFF7B7FFA0B158B92268136C7D
:104B000023F4802313642268136CA1690B4313649C
:104B1000012363772368FF225A6210BD03770CF0EC
:104B200085F8DEE72268936823F4E00323F040036E
:104B3000936021688A68636820690343606903435E
:104B400013438B602368E2681A6122681369A168C5
:104B500043EA014313612046FFF7A8FFCDE7012098
:104B600070470023092804D90133DBB20A38C0B2E8
:104B7000F8E71B01DBB218437047037F012B59D0C4
:104B800070B504460E4601230377022343774ABBE0
:104B900003689B6813F0400F01D10023CB7030787D
:104BA000FFF7DFFF05047078FFF7DBFF45EA00251C
:104BB000B078FFF7D6FF0543F07845EA80552368C3
:104BC000CA225A62236853225A622046FFF74BFFDB
:104BD000D0B108B9012363772368FF225A6200230A
:104BE000237770BD03689B6813F0400F01D1002349
:104BF000CB70337875782D0245EA0345B0780543CC
:104C0000F07845EA8055DAE7236805F07F3525F02E
:104C1000FE451D602268936823F480239360216819
:104C20008B68F2683069024313438B602046FFF7BC
:104C30003DFFCEE702207047037F012B48D070B5BF
:104C400004460E4601230377022343773AB94B7893
:104C500013F0100F03D003F0EF030A334B7012BBB5
:104C6000F078FFF77EFF05047078FFF77AFF45EADA
:104C70000025B078FFF775FF0543307845EA4035E9
:104C80002368CA225A62236853225A622046FFF7D9
:104C9000EAFE98B108B9012363772368FF225A62BC
:104CA0000023237770BDF37875782D0245EA03451C
:104CB000B0780543307845EA4035E1E7236825F0D0
:104CC0007F4525F0C0055D602046FFF7EFFEE1E778
:104CD00002207047F0B583B00D46684B1B686849E9
:104CE000A1FB0313DB0A4FF47A7101FB03F3019379
:104CF000037F012B00F0C0800446012303770223C9
:104D00004377002A6CD103689B6813F0400F01D1F0
:104D10000023EB70EF692878FFF723FF060468781B
:104D2000FFF71FFF46EA0026A878FFF71AFF0643A1
:104D3000E87846EA805695F82000FFF712FF46EA29
:104D400000663E436B691E436868AB69184323687D
:104D5000CA225A62236853225A626B6AB3F5807F73
:104D600058D02268936823F4007393602268D36854
:104D7000DBB263F42073D360404B1B68404AA2FB54
:104D80000323DB0A4FF47A7202FB03F30193019BC6
:104D90005A1E0192002B67D02368DA6812F0020FC6
:104DA000F5D01E62236898642268936843F4007308
:104DB00093602268936843F400539360314B1A6800
:104DC00042F400321A609A6842F400329A60236812
:104DD000FF225A62012363770020207703B0F0BDE1
:104DE00003689B6813F0400F01D10023EB70EA6960
:104DF00029786B781B0243EA0143A9780B43E978D1
:104E000043EA815395F8201043EA016313436E6926
:104E10001E4399E72268936823F4807393602268A5
:104E2000D368DBB263F4C073D360019B5A1E019256
:104E300093B12368D96811F0010FF6D0DE612368C1
:104E400058642268936843F480739360226893687F
:104E500043F480539360B1E72368FF225A62032032
:104E6000607700232377B9E72368FF225A62032083
:104E7000607700232377B1E70220AFE754290020B1
:104E8000D34D6210003C0140030903EB830300F0A3
:104E90000F0000EB4300C0B2704770B503689B6A17
:104EA0004B6003681B69C3F30E038B6003681B68C8
:104EB000C3F305400870C3F306264E7003F07F0568
:104EC0008D70C3F38053CB705AB90C46FFF7DCFFEB
:104ED00020703046FFF7D8FF60702846FFF7D4FFF8
:104EE000A070002070BD70B503685B68C3F3074015
:104EF000C870C3F304264E7003F03F058D70C3F3F2
:104F000042330B705AB90C46FFF7BEFFE0703046D3
:104F1000FFF7BAFF60702846FFF7B6FFA0700020C9
:104F200070BD000070B483B03A4B1B683A4CA4FBD0
:104F30000343DB0A4FF47A7606FB03F60196037F00
:104F4000012B65D001230377022343770368CA242A
:104F50005C62036853245C620568AB6813F4806F7D
:104F600008D0019B5C1E0194002B3ED0EB6813F02F
:104F7000040FF6D1AB6823F48063AB600468E36888
:104F8000DBB263F49063E3600196019B5C1E0194C5
:104F9000002B32D00368DC6814F0040FF5D09C6855
:104FA00024F007049C600468A3681A43A2600368A5
:104FB00059611A4B1A6842F480021A609A6842F4E6
:104FC00080029A600268936843F4804393600268A9
:104FD000936843F4806393600368FF225A6201235D
:104FE00043770023037718460FE0FF236B62032308
:104FF000437700220277184607E00368FF225A62CF
:105000000323437700220277184603B070BC704731
:105010000220FAE754290020D34D6210003C0140E1
:1050200010B504460368DB6813F4806F06D1084BA3
:105030004FF480025A610123637710BD0DF0C6F86A
:105040002268D368DBB263F49063D360EFE700BFFC
:10505000003C0140704700002DE9F04782B0054652
:10506000884617461E46FCF72BF80A9B1B1A03EBD3
:105070000609FCF725F882462A4B1B68C3F3CB339D
:1050800009FB03F301932B689C6838EA04030CBF07
:1050900001240024BC4240D0B6F1FF3FF3D0FCF71E
:1050A0000FF8A0EB0A0048450AD2B9F1000F07D06B
:1050B000019A02B14A46019B013B01939146E2E706
:1050C0002A68536823F0E00353606B68B3F5827F6E
:1050D0000BD0AB6AB3F5005F14D0012385F85130D3
:1050E000002385F85030032018E0AB68B3F5004F7B
:1050F00002D0B3F5806FECD12A68136823F0400327
:105100001360E6E72A68136823F4005313602A68E3
:10511000136843F400531360DFE7002002B0BDE8DA
:10512000F08700BF5429002030B585B00446164BE7
:105130001868164BA3FB0030400D4FF47A7505FB41
:1051400000F003906368B3F5827F0BD0039BBBB183
:10515000039B013B039323689B6813F0800FF5D1F9
:1051600000200EE000920B46002280212046FFF72F
:1051700073FF30B1636D43F020036365032000E0EB
:10518000002005B030BD00BF54290020819F5E166D
:1051900010B582B004460B464168B1F5827F14D049
:1051A0006168B1F5827F2AD1A168B1F5806F19D00D
:1051B0000092002280212046FFF74EFF30B3636D3E
:1051C00043F020036365032020E08168B1F5004FC0
:1051D00002D0B1F5806FE3D12068016821F0400171
:1051E0000160DDE70092002201212046FFF734FF35
:1051F00060B1636D43F020036365032006E0009215
:10520000002201212046FFF727FF08B902B010BD98
:10521000636D43F0200363650320F7E700285AD04D
:1052200010B50446436A33B94368B3F5827F05D0AD
:105230000023C36102E00023036143610023A362F2
:1052400094F85130002B40D0022384F8513022686A
:10525000136823F040031360636803F48273A26849
:1052600002F404421343E26802F400621343226929
:1052700002F002021343626902F001021343A269C1
:1052800002F400721343E26902F038021343226A07
:1052900002F080021343A26A02F400522168134311
:1052A0000B60638B03F00403626A02F01002216852
:1052B00013434B602268D36923F40063D361002059
:1052C0006065012384F8513010BD84F850302046C9
:1052D0000CF048F9B8E7012070470000034690F849
:1052E0005000012848D0012083F85000002938D010
:1052F000002A38D093F85100C0B2012838D10320D9
:1053000083F851000020586519639A86DA869863FD
:105310009887D8871864DA68AAB1184A5A649A68D4
:10532000B2F5004F12D019684A6842F0A0024A60F4
:105330001A68116811F0400F1CD1116841F040014A
:105340001160002010E00E4A5A64E8E719680A6804
:1053500022F040020A6019680A6842F480420A603A
:10536000E1E7012000E00120002283F8502070478F
:105370000220F9E70020F7E702207047CD5500082A
:10538000A555000830B4044690F85000012853D0C9
:10539000012084F8500094F85100C0B265680128DB
:1053A00007D0B5F5827F35D1A568002D38D1042806
:1053B00038D1002938D0002A38D0002B38D094F8C2
:1053C0005100C0B2042802D0052084F8510000200A
:1053D00060652163A386E386A263A387E387E3680E
:1053E0009BB1164B2364164B63642268536843F0E9
:1053F000E003536023681A6812F0400F1AD11A684C
:1054000042F040021A60002005E00E4B23640E4B70
:105410006364EAE70220002384F8503030BC704710
:105420000220F8E70220F6E70120F4E70120F2E786
:105430000120F0E70020EEE70220EFE7F557000833
:10544000BD570008855700084D57000810B50446A1
:1054500083681BB94068B0F5827F32D094F8500061
:1054600001284CD0012084F8500094F85100C0B2BB
:1054700001283DD100293CD0002A3AD0042084F8EC
:10548000510000206065A163A287E2872063A086A7
:10549000E0866064E268EAB11A4A2264B3F5004F1C
:1054A0001BD02268536843F06003536023681A6876
:1054B00012F0400F21D11A6842F040021A60002019
:1054C00017E0042384F8513013460A462046FFF7BC
:1054D00059FF11E00C4A2264E0E72268136823F0C8
:1054E000400313602268136823F480431360D8E7F5
:1054F0000220002384F8503010BD0020F9E702207C
:10550000FAE700BF735600084B5600087047704713
:105510007047704710B582B00446204B1B68204A84
:10552000A2FB03235B0A642202FB03F30193FBF754
:10553000C7FD0246019B43B1019B013B01932368D8
:105540009B6813F0020FF5D003E0636D43F0200376
:10555000636521684B6823F0A0034B6064212046FB
:10556000FFF7E2FD18B1636D43F020036365A368A4
:1055700033B900932368DA6800929B680093009B1C
:10558000012384F85130636D23B12046FFF7C1FF3A
:1055900002B010BD2046FFF7B9FFF9E754290020FB
:1055A000F119760508B5026B036812781A73036B5C
:1055B00001330363C38E9BB2013B9BB2C386C38E90
:1055C0009BB203B108BDFFF7A5FFFBE708B5026B6F
:1055D00003681288DA60036B02330363C38E9BB2E5
:1055E000013B9BB2C386C38E9BB203B108BDFFF7DC
:1055F00091FFFBE710B582B004460268536823F0C0
:1056000060035360FBF75CFD024664212046FFF710
:10561000BFFD18B1636D43F020036365A36833B920
:1056200001932368DA6801929B680193019B01232F
:1056300084F85130636D23B92046FFF768FF02B04C
:1056400010BD2046FFF765FFF9E708B50268836BD8
:10565000127B1A70836B01338363C38F9BB2013B50
:105660009BB2C387C38F9BB203B108BDFFF7C2FFD4
:10567000FBE708B50368DA68836B1A80836B023333
:105680008363C38F9BB2013B9BB2C387C38F9BB223
:1056900003B108BDFFF7AEFFFBE7000010B582B015
:1056A0000446284B1B68284AA2FB03235B0A64229A
:1056B00002FB03F30193FBF703FD024621684B68ED
:1056C00023F020034B60019B43B1019B013B0193FD
:1056D00023689B6813F0020FF5D003E0636D43F07D
:1056E0002003636564212046FFF71EFD18B1636D3A
:1056F00043F020036365A36833B900932368DA6835
:1057000000929B680093009B636D9BB994F85130A5
:10571000DBB2042B07D0012384F851302046FFF779
:10572000F7FE02B010BD012384F851302046FFF788
:10573000EEFEF6E7012384F851302046FFF7E9FE3C
:10574000EFE700BF54290020F119760508B5026B78
:10575000036812781A73036B01330363C38E9BB221
:10576000013B9BB2C386C38E9BB23BB902685368B0
:1057700023F080035360C38F9BB203B108BDFFF7D2
:105780008DFFFBE708B50268836B127B1A70836B91
:1057900001338363C38F9BB2013B9BB2C387C38F2B
:1057A0009BB23BB90268536823F060035360C38E19
:1057B0009BB203B108BDFFF771FFFBE708B5026BB1
:1057C00003681288DA60036B02330363C38E9BB2F3
:1057D000013B9BB2C386C38E9BB23BB90268536840
:1057E00023F080035360C38F9BB203B108BDFFF762
:1057F00055FFFBE708B50368DA68836B1A80836B93
:1058000002338363C38F9BB2013B9BB2C387C38FB9
:105810009BB23BB90268536823F040035360C38EC8
:105820009BB203B108BDFFF739FFFBE730B585B088
:105830000446026851689368C3F3801013F0400F68
:1058400005D113F0010F02D011F0400F69D113F010
:10585000020F02D011F0800F67D1C3F3401513F08F
:10586000200F03D110B913F4807F61D011F0200F05
:105870005ED078B194F85100C0B203285AD0606D60
:1058800040F00400606500200090D06800909068AF
:105890000090009865B1606D40F0010060650020E7
:1058A000029090680290106820F040001060029A08
:1058B00013F4807F09D0636D43F008036365002310
:1058C000039323689B680393039B636D002B2FD086
:1058D0002268536823F0E0035360012384F85130B9
:1058E00011F0030F2ED02268536823F00303536096
:1058F000E36C4BB1154A1A65E06CFCF704FA18B179
:10590000636D43F040036365A36C8BB10F4A1A6566
:10591000A06CFCF7F8F958B1636D43F04003636580
:1059200006E0236C2046984702E0636C20469847C7
:1059300005B030BD00230193D368019393680193B0
:10594000019BF5E72046FFF7E4FDF1E75159000818
:1059500008B5806B0023C387C386FFF7DAFD08BD57
:1059600090F83D30DBB2012B37D1022380F83D3077
:105970000268D36843F00103D3600368194A934275
:1059800020D0B3F1804F1DD0A2F57C42934219D0B4
:1059900002F58062934215D002F58062934211D0E5
:1059A00002F5784293420DD002F57052934209D02D
:1059B000A2F59432934205D01A6842F001021A60AF
:1059C000002070479A6802F00702062A07D01A687A
:1059D00042F001021A600020704701207047002049
:1059E000704700BF00000140704770477047704724
:1059F00010B5044603681A6912F0020F11D0DA6874
:105A000012F0020F0DD06FF002021A61012303772A
:105A100003689B6913F0030F70D0FFF7E6FF0023C4
:105A2000237723681A6912F0040F12D0DA6812F093
:105A3000040F0ED06FF004021A610223237723684B
:105A40009B6913F4407F5FD02046FFF7CEFF002311
:105A5000237723681A6912F0080F12D0DA6812F05F
:105A6000080F0ED06FF008021A6104232377236811
:105A7000DB6913F0030F4ED02046FFF7B6FF00237B
:105A8000237723681A6912F0100F12D0DA6812F027
:105A9000100F0ED06FF010021A61082323772368CD
:105AA000DB6913F4407F3DD02046FFF79EFF0023C3
:105AB000237723681A6912F0010F03D0DA6812F015
:105AC000010F36D123681A6912F0800F03D0DA680B
:105AD00012F0800F34D123681A6912F0400F03D0FE
